:100000000C94A2010C94E9010C94E9010C94E9010F
:100010000C94E9010C94E9010C94E9010C94E901B8
:100020000C94E9010C94E9010C94951E0C94691F41
:100030000C941B170C94E9010C94E9010C94E90150
:100040000C94E9010C94E9010C94E9010C94E90188
:100050000C94E9010C9466170C94E9010C94E901E5
:100060000C94E9010C94E9010C94E9010C94E90168
:100070000C94E9010C94E9010C94E9010C94E90158
:100080000C94E9010C94E9010C94E9010C94E90148
:100090000C94E9010C94E9010C94E9010C94E90138
:1000A0000C94E9010C94E9010C94E9012900140075
:1000B0001A000800150017001C0018000C001200A0
:1000C0002B0004001600070009000A000B000D00B9
:1000D0000E000F00E1001D001B00060019000500C6
:1000E0001100100036003772E000E2002C002C00F6
:1000F00000002C002C000151025113001E001F00B3
:1001000020002100220023002400250026002700D3
:100110001E021F02200221022202230224022502C3
:100120002D002E005000510052004F004A004D009B
:100130005000510052004F00010001000100010079
:10014000000001000100010001004C003A003B00EA
:100150003C003D003E003F004000410042004300A3
:100160000100010001000100010001000100010087
:100170000100450001000100010001000100010033
:100180000100010001000100010001000100010067
:1001900000000100010001000100440036003700AA
:1001A00000001B00060000001300330000000F00D9
:1001B00033000000140013000000040016000000CB
:1001C00012001300000014001A00000004033000A5
:1001D00000000E0345006C006500760065006E00AF
:1001E00000001203440072004800690067007300B9
:1001F0006200790000000403090409023B000201C7
:1002000000A0FA0904000001030101000921110105
:1002100000012240000705810308000A09040100CB
:10022000010300000009211101000122BC000705A3
:10023000820320000A12011001000000082004219E
:10024000A420A40102030105010902A101850209FC
:1002500001A100050919012905150025019505755C
:1002600001810295017503810105010930093115EC
:1002700081257F95027508810609381581257F95AE
:100280000175088106050C0A38021581257F950144
:1002900075088106C0C005010980A1018503190107
:1002A0002AB700150126B700950175108100C00519
:1002B0000C0901A101850419012AA002150126A03B
:1002C00002950175108100C005010906A10185058F
:1002D000050719E029E71500250195087501810238
:1002E0000507190029EF1500250195F07501810218
:1002F00005081901290595057501910295017503F8
:100300009101C005010906A101050719E029E715BA
:100310000025019508750181029501750881010587
:1003200007190029FF150026FF00950675088100B2
:1003300005081901290595057501910295017503B7
:100340009101C00011241FBECFEFDAE0DEBFCDBFA8
:1003500004B603FE27C08091C1029091C202A09111
:10036000C302B091C4028730904BA740B04BD1F488
:100370001092C1021092C2021092C3021092C402E3
:1003800014BE84B7877F84BF0FB6F894A895809178
:100390006000886180936000109260000FBEE0E012
:1003A000F8E3099511E0A0E0B1E0EAE6F3E402C069
:1003B00005900D92AE3BB107D9F722E0AEEBB1E06C
:1003C00001C01D92A13CB207E1F70E94D51B0C941D
:1003D0008B210C940000811106C08BE4611101C0D7
:1003E0008EE40C94980C0895CF93DF939C013A957A
:1003F00021153F4168F5EC01CC27D170DC01AA271B
:10040000B270AC01442754709C012227387094FFCD
:1004100011C080E1CD2B09F480E0AB2B09F08062A4
:10042000452B09F08064232B09F08068FB01DF91E4
:10043000CF91099481E0CD2B09F480E0AB2B09F03A
:100440008260452B09F08460232B81F38860EECF16
:10045000DF91CF910895CF93DF93EC01805E9109F6
:10046000089720F061E17FE0209711F46BEA7CE0CF
:10047000CE010E94F4018C2FDF91CF910C94B00B30
:10048000CF93DF93EC010E94420CCE01805E910974
:10049000089720F068E17FE0209711F462EB7CE0A0
:1004A000CE01DF91CF910C94F40181E0089581E0B9
:1004B00008950C94570208950C945B021F93CF93F8
:1004C000DF9300D000D00F92CDB7DEB749835A83B7
:1004D0006B833091EE0189819A8131111DC06623B1
:1004E000B9F02223A9F00E942214182F682F8981C5
:1004F0009A810E94CE1369817A81812F0F900F908B
:100500000F900F900F90DF91CF911F910C941603D5
:100510000E94FA13182FEFCF0E94221469817A816A
:10052000EDCFFC01262F408151816281738184814E
:100530000C945E02CF93DF93EC0160E00E94910285
:10054000BE01DF91CF910C945C020E94661581116F
:1005500002C00E9403160C9422050E94F6080C9417
:10056000250508950C94B10281E008950C94B4021D
:10057000CF93C82F0E94B2028C2FCF910C94B60259
:1005800008950E94350F0E94C0022FEF84E39CE083
:10059000215080409040E1F700C000000C948A1781
:1005A0000F931F93CF93DF93EC0161E00E949102C0
:1005B0008C01BE010E945902882359F1BE01C80175
:1005C0000E942209882329F1BE01C8010E94370731
:1005D0008823F9F0BE01C8010E9489078823C9F069
:1005E000BE01C8010E94AC08882399F08A81882343
:1005F00039F001158CE5180751F00E3D1C4579F0D6
:10060000CE01DF91CF911F910F910C9455020E9462
:10061000C10280E0DF91CF911F910F9108950E9458
:100620000316F7CF90E080E008950895972F70E0CB
:100630002AE0929F600D711D1124FB0198E2899FB1
:10064000E00DF11D1124EE0FFF1FE455FF4F8591C2
:1006500094910895FC01EE0FFF1FE453FE4F859126
:1006600094910895CF93DF930E9416030E9447044C
:10067000EC01811520E5920708F042C0811530E4B5
:10068000930708F0BDC0883E910528F5803E91058E
:1006900008F09DC0883A910588F4853A910508F0E4
:1006A0008FC08130910509F492C0009709F48FC082
:1006B000049708F08CC0D0E0C0E089C08F3B910562
:1006C00008F489C0805C9109C03CD105A0F30E9468
:1006D0002A03EC017CC08115904250F4C11581E0E1
:1006E000D80708F074C0C03FD10528F3D0656FC0AB
:1006F000C11590E3D90708F079C0CE019F70E7CF0C
:10070000811525E5920758F5811534E5930708F022
:10071000A6C0811542E5940750F4C11581E5D807BC
:1007200008F471C0DC2FCC27C16FD06A50C0982F5D
:10073000969596959E0123703327C115D34508F0F1
:100740007FC0C1E0D0E002C0CC0FDD1F2A95E2F7E8
:1007500020E2929FC0011124C82BD92B6FC0C11574
:1007600089E5D807A8F4C11598E5D90708F07CC039
:10077000C11526E5D20708F09ECF8C2F0E94DE041B
:10078000C82FD0E0DC2FCC27CC27DF71D0621FC070
:10079000C1153AE5D30708F46CC0CE019056811517
:1007A000904208F088CF8D2F8F710E94DE0490E078
:1007B000982F882788279F719C012C2BE901E6CF71
:1007C000C55AD0E0C459DE4FC881D0E0D064CE0114
:1007D000DF91CF910895C85AD0E0CC0FDD1FC25CE5
:1007E000DE4F0990D881C02DD464F1CFCE01992776
:1007F000D3FF03C0EC01D86CEACFEC01D06CE7CF9B
:10080000DF70D06AE4CFCE01E4E096958795EA9553
:10081000E1F783702C2F26952695237090E2299F6F
:1008200090011124382B8C2F8370C1E0D0E002C0DE
:10083000CC0FDD1F8A95E2F7C22BD32BDC68C7CF24
:10084000C1E0D0E002C0CC0FDD1F2A95E2F730E214
:10085000939FC0011124C82BD92BDA68B8CFD82FA9
:10086000CC27C46FD06AB3CFDC2FCC27C06FD06A3F
:10087000AECF8C2F8F700E94DE0434E0D695C795E2
:100880003A95E1F7CF709C2FEC01D069A0CF823868
:100890009105B1F1B0F48133910509F475C048F4C4
:1008A0008932910509F469C08A32910509F473C04F
:1008B00008958533910509F459C08933910501F1F3
:1008C0000895833E9105A9F138F4803E9105F9F031
:1008D000823E910549F10895863E9105A9F1873E32
:1008E0009105C9F1843E910519F52091B30221FFCC
:1008F0001FC08091B20284FD14C087EE90E008957D
:100900002091B2022370A1F080EE90E00895209132
:10091000B20220FD47C03091B30230FF09C024FF6E
:1009200044C090E080E004C02091B20222FDF7CFE5
:1009300008952091B20222FD3BC03091B30230FDF8
:10094000E3CF24FFF5CFEDCF2091B20223FFF0CF0C
:1009500024FDE7CFD2CF2091B20223FD2CC03091ED
:10096000B30231FFEECF84EE90E008952091B20201
:1009700025FFDECF89E290E008952091B20225FFA5
:10098000D7CF85E390E008952091B20226FFD0CF23
:100990008AE290E008952091B20226FFC9CF81E358
:1009A00090E0089589E390E0089583EE90E0089543
:1009B00082EE90E0089586EE90E008959091B20264
:1009C00092FF06C0282F28712830F9F4877F8460B1
:1009D00093FF06C0282F28712831F1F4877E8461A7
:1009E0002091B30220FF06C0382F38713830D9F477
:1009F000877F816021FF06C0282F28712831D1F41C
:100A0000877E816194FD877E0895282F247124308C
:100A1000F9F68B7F8860DCCF282F2471243101F711
:100A20008B7E8861DDCF382F3171313019F78E7FA1
:100A30008860E0CF282F2171213121F78E7E8861D7
:100A4000E1CF08950C94210508950C942405E82F16
:100A5000F0E0EE0FFF1FEA55FD4F80819181089570
:100A6000089580EA8A95F1F70895CF93DF93A9E777
:100A7000B1E04DE751E0C1E0D0E08D91E82FE29583
:100A8000EF70F0E061A18F709E0101C0220F8A9586
:100A9000EAF7922F9095962391A382A1822B82A3AD
:100AA0004A175B0751F7AFE6B1E049E751E0C1E013
:100AB000D0E08D91E82FE295EF70F0E061A18F70AA
:100AC0009E0101C0220F8A95EAF7922F90959623F6
:100AD00091A382A1822B82A34A175B0751F7109240
:100AE0009F0210929E021092A7021092A6021092EC
:100AF000A1021092A0021092A9021092A8021092D4
:100B0000A3021092A2021092AB021092AA021092BB
:100B1000A5021092A4021092AD021092AC0284E0E1
:100B20000E941D06DF91CF910C94A5028F929F9297
:100B3000AF92BF92CF92DF92EF92FF920F931F93EB
:100B4000CF93DF9389E7E82E81E0F82E0EE912E0DB
:100B5000912CAA24A394B12CF70181917F01C82F75
:100B6000C295CF70D0E099A18F70650101C0CC0C07
:100B70008A95EAF7892F8C2989A38AA18C2C8094E5
:100B800088218AA30E943105EFE6F1E050E040E0C1
:100B900030E020E06191A62FA295AF70B0E0909672
:100BA0008C9190E06F7002C0959587956A95E2F7F9
:100BB00080FD3EC0C501042E02C0880F991F0A9413
:100BC000E2F7282B392B4F5F5F4F4A30510511F761
:100BD00089A1882289A28AA1C82ACAA2F801808193
:100BE00091812817390739F13183208381E0982AD0
:100BF0000E5F1F4FFDE7EF16F1E0FF0609F0ACCFE7
:100C0000292D44E066EA72E08EE992E00E941E0619
:100C10000E94AD02892DDF91CF911F910F91FF901E
:100C2000EF90DF90CF90BF90AF909F908F900895FE
:100C300090E080E0C6CF80E0DACF0895FF920F9376
:100C40001F93CF93DF93F82E092F162FD72FC42F82
:100C5000222349F081E08093C0010E944B179093BA
:100C6000BF018093BE018091C0018823A1F08091D3
:100C7000BE019091BF010E945717069760F0EF2DBB
:100C8000F02FA12FBD2F90E080E0D0E08C179D07C2
:100C900044F01092C001DF91CF911F910F91FF900E
:100CA0000895219131912D933D930196EFCF0C94AE
:100CB000EB0184988C9A85988D9A8FB1829581707A
:100CC0007D9905C090E0892B8093C301089592E03F
:100CD000FACFE091C301EE0FEE0FE093C3014FB1E5
:100CE00044FB882780F94FB145FB222720F945FFB7
:100CF00002C022E030E0822BE82BE093C301EF70CA
:100D0000F0E0E358FE4F80819091C201890F8093FB
:100D1000C20184304CF08091C1018F5F8093C1018A
:100D200060E080E00E9457068091C2018D3F4CF444
:100D30008091C10181508093C10161E080E00E94F7
:100D400057068091C201837887FF03C081508C6F62
:100D50008F5F8093C2010895AF92BF92CF92DF92CE
:100D6000EF92FF920F931F93CF93DF937C015B0170
:100D7000C42FD22FFC0182818823F9F04093C60151
:100D80000E944B179093C5018093C40180E28C0FA1
:100D9000883008F061C0C77081E001C0880FCA9533
:100DA000EAF7DF91CF911F910F91FF90EF90DF90C5
:100DB000CF90BF90AF900C94AB0C1091C601141360
:100DC00040C08091C4019091C5010E9457176C01E9
:100DD000B701C5010E94AB11C816D90690F5C0E253
:100DE000CD0F1D17B9F080E2810F883040F41770E5
:100DF00081E001C0880F1A95EAF70E94B20CC83052
:100E000048F481E09D2F977001C0880F9A95EAF70A
:100E10000E94AB0C802F0E94980CC830E8F4D77069
:100E200081E001C0880FDA95EAF7DF91CF911F9139
:100E30000F91FF90EF90DF90CF90BF90AF900C9408
:100E4000B20C80E28C0F883038F4C77081E001C0AA
:100E5000880FCA95EAF7E9CFDF91CF911F910F91E3
:100E6000FF90EF90DF90CF90BF90AF9008950F93D9
:100E70009C01CB01233F4CE5340759F1A8F4283DF0
:100E8000FCE53F0701F1293D4CE53407D1F1273D51
:100E90003C4591F406E221EE41EE67ED7CE50E94CF
:100EA000AC0680E00F910895253FFCE53F07E9F08F
:100EB000B0F0263F3C45F9F0FC018281882339F1EE
:100EC0001092C601EFCF07E225EE45EE68ED7CE516
:100ED000E6CF06E221EE40EE63EF7CE5E0CF07E2ED
:100EE00025EE44EE64EF7CE5DACF06E221EE42EE39
:100EF00065EF7CE5D4CF07E225EE46EE66EF7CE5B4
:100F0000CECF08E221E045EE69ED7CE5C8CF81E077
:100F1000C9CFCF93DF93EC01FB018281882309F4D1
:100F200019C1C230FCE5DF07C0F1C6319CE5D90725
:100F300030F09E012A5F3C452930310570F50E9452
:100F400079159093B3028093B202C031ECE5DE07CD
:100F500009F4CFC008F05BC0C8308CE5D80709F4AD
:100F6000B6C088F5C430ECE5DE0709F4A8C0C0F4CB
:100F7000C2308CE5D80709F49CC08091B20282602F
:100F8000C330DC4509F498C08091B2029091B3025D
:100F90000E9487150E94350F80E0DF91CF91089560
:100FA0008091B2028061C630ECE5DE0709F484C0AE
:100FB0008091B2028860C730DC4508F47DC0809122
:100FC000B202806279C0CC308CE5D80709F489C0C0
:100FD00070F48091B2028C60CA30ECE5DE0709F44F
:100FE0006BC008F478C08091B2028E7F65C0CE30AD
:100FF0008CE5D80709F479C08091B2028B7FCF309D
:10100000DC4508F459C08091B2028F7E55C0CB3FB9
:10101000ECE5DE0709F457C030F5C3318CE5D8079D
:1010200009F46FC078F4C131ECE5DE0709F465C05E
:10103000C231DC4509F0A8CF0E94350F8091B20281
:101040008F773AC0C5318CE5D80709F462C008F43F
:1010500076C08091B3028160CA3FDC4509F094CF2D
:101060008093B30291CFCF3FFCE5DF0709F44DC079
:1010700088F48091B3028D7FCD3F9CE5D90781F341
:101080008091B3028E7FCE3FDC4550F38091B30256
:101090008360E6CFC130FDE5DF0709F459C008F4ED
:1010A00044C080E0C230DD4509F06ECF0E940516D5
:1010B0006BCF8091B20281608093B20265CF809144
:1010C000B2028460F9CF8091B3028260C9CF80916F
:1010D000B2028064F1CF0E94350F8091B202806825
:1010E000EBCF8091B2028D7FE7CF8091B202877FF4
:1010F000E3CF8091B2028F7DDFCF8091B2028F7BF0
:10110000DBCF8091B202837FD7CF8091B3028C7FF7
:10111000A7CF8091B20282FB992790F921E0922714
:1011200090FB82F990FB83F9C7CF8091B302982F8F
:10113000909591708E7F892B90FB81F991CF0E94C1
:10114000350F9091B202892F97FB87F98058B4CF61
:1011500081E0ACCF81E021CFCF93DF93EB018631EB
:101160009C4511F50E94B7149A81992399F08A7AC7
:1011700091E009F490E09093C701811109C089E2E0
:101180000E9492140E94031580E0DF91CF91089590
:1011900085E3F6CF8091C701811104C089E20E94E6
:1011A0009914F0CF85E3FBCF81E0EFCFCF939091FF
:1011B000D801992321F0811116C01092D801CF9146
:1011C0000895EC2FF0E0EE0FFF1FE853FE4F8081F3
:1011D00091810E942B020E940315CF5F8091D8015C
:1011E000C81778F3EACFC0E0F9CF089580912801BD
:1011F000882399F08091D901882379F08091DD01CD
:101200009091DE01009749F00E9457178E9728F0C1
:101210001092D90181E00C94D60808951092D9015A
:10122000109228011092DE011092DD0181E00C94F1
:10123000D6088091280181110C940E0981E08093D9
:10124000280108955F926F927F928F929F92AF9242
:10125000BF92CF92DF92EF92FF920F931F93CF93A3
:10126000DF937C016B011092DA01873F4CE5940714
:10127000C1F4FB01C281CC2349F181E080932801B4
:101280008C2FDF91CF911F910F91FF90EF90DF9006
:10129000CF90BF90AF909F908F907F906F905F9016
:1012A0000895883FFCE59F0739F4FB01C281CC23F8
:1012B00069F00E940E09E4CF893F9C4539F4FB0197
:1012C000C281CC2319F00E941909DACFD0912801EC
:1012D000C1E0DD23A9F21092DC011092DB01C0E035
:1012E00055E0752E88248394912C66246394009194
:1012F000DB011091DC010830110588F08091DA01E2
:10130000882309F497C00E944B179093DE018093C5
:10131000DD0180E00E94D60881E0C827B1CF709E31
:10132000F001719EF00D1124E050FF4F80819181FA
:101330003FEF20E0E22FF0E0EE0FFF1FE80FF91F74
:1013400045915491E416F50609F4322F452B11F01E
:101350002F5FF0CF3F3FD1F4512CC529DD2351F051
:10136000709EF001719EF00D1124E050FF4FD1E00E
:1013700084818111D0E0D1708091DB019091DC01FA
:1013800001969093DC018093DB01B1CF5090D9019D
:10139000F6019281709EF001719EF00D1124E050D3
:1013A000FF4F8481540101C0AA0C3A95EAF79923B2
:1013B000E1F0A82AA482552079F2C40102C0880F66
:1013C000991F2A95E2F70197A816190631F682812E
:1013D0009381009729F00E942B026092DA01BDCF21
:1013E00061E0C8010E94F508F8CFA40102C0440FD3
:1013F000551F2A95E2F79A012150310982171306E9
:10140000B9F482819381009771F00E944002709E2E
:10141000F001719EF00D1124E050FF4FA0948481E3
:10142000A822A4829ACF60E0C8010E94F508EFCFFD
:10143000512CEDCFC1110EC081E00E94D608DD23F2
:1014400009F46ACF1092DE011092DD0181E08093F1
:10145000D90162CFF6018281882309F45DCF8091A2
:10146000D901882309F458CF0E944B179093DE01CD
:101470008093DD01E091D801E83008F04DCF81E0A4
:101480008E0F8093D801F0E0EE0FFF1FE853FE4F60
:10149000F182E08241CF9093E4018093E3010895CB
:1014A000E091E301F091E401309721F00190F081A7
:1014B000E02D099480E00895E091E301F091E401CA
:1014C000309799F020913D01222359F02091B202EA
:1014D00027FF07C0DC012C9111962C93119725E072
:1014E0002C930280F381E02D09940895E091E301AB
:1014F000F091E401309739F022E0DC012C93048074
:10150000F581E02D099408952091E1013091E201E7
:101510002817390771F09093E2018093E101E0917F
:10152000E301F091E401309721F00680F781E02D8E
:10153000099408952091DF013091E00128173907BF
:1015400071F09093E0018093DF01E091E301F0916D
:10155000E401309721F00084F185E02D099408958D
:1015600085B7806885BF85B7806885BF0895089571
:1015700008950C94B70A08950C94BB0A0E94B00A0F
:101580000E94B80A0C94B90A81E008950C94C40A28
:101590000E9442170E9435050E949B170E9459061F
:1015A0000C94BC0A9F92AF92BF92CF92DF92EF92BF
:1015B000FF920F931F93CF93DF93CDB7DEB72A9798
:1015C0000FB6F894DEBF0FBECDBF0E9496050E94F5
:1015D000C60A882309F472C056EEA52E51E0B52E36
:1015E00010E000E0902E802F0E9427056C01F5018D
:1015F000E190F1905F01E816F90609F459C0809175
:101600006D0281FD0E94300597012C253D2580E06B
:10161000EE24E394F12CA9014E215F21452B09F41E
:1016200041C08E839F82CE20DF2081E0CD2809F447
:1016300080E088870E944B178160782F9A8789877E
:101640004E815F8168858A850E94810B000F111F82
:10165000F801EA51FE4F80819181E826F926F18256
:10166000E0820E9469060E9446190E94500A9091E9
:10167000E5018917A1F10E94500A8093E5012A969D
:101680000FB6F894DEBF0FBECDBFDF91CF911F9193
:101690000F91FF90EF90DF90CF90BF90AF909F9011
:1016A0000C94B8028F5FEE0CFF1C8A3009F0B3CFA8
:1016B0000F5F1F4F0430110509F094CF8FEF89831E
:1016C0008A831B820E944B178160782F9D838C83B5
:1016D00049815A816B818D810E94810BC2CF2A96EC
:1016E0000FB6F894DEBF0FBECDBFDF91CF911F9133
:1016F0000F91FF90EF90DF90CF90BF90AF909F90B1
:101700000895CF93DF93CDB7DEB72B970FB6F8943C
:10171000DEBF0FBECDBF4F83588769877A878B871F
:101720001E821D8285E0FE013796DE011196019032
:101730000D928A95E1F749815A816B817C818D8177
:101740009E812B960FB6F894DEBF0FBECDBFDF9102
:10175000CF910C94AE11FC01808191810C946414A2
:10176000CF93C82F882309F48BC08238C1F40E941C
:10177000500A81FD85C089E30E9492140E940315DE
:101780002FEF81EE94E0215080409040E1F700C0BF
:10179000000089E30E949914CF910C9403158338BB
:1017A000A1F40E94500A80FD6BC083E50E94921450
:1017B0000E9403152FEF81EE94E02150804090406D
:1017C000E1F700C0000083E5E5CF8438A1F40E9472
:1017D000500A82FD55C087E40E9492140E940315AE
:1017E0002FEF81EE94E0215080409040E1F700C05F
:1017F000000087E4CFCF8CEF8C0F813A90F46C2FF0
:101800008091290190912A010E941E16882329F0B7
:101810008C2F0E9499140E9403158C2F0E94921401
:10182000BBCF80E28C0F883048F4C77081E001C0E4
:10183000880FCA95EAF70E94BA14AECFEBE5EC0F19
:10184000E33040F4F0E0E554FE4F808190E0CF912A
:101850000C94840AE8E5EC0FE73150F4F0E0EE0F69
:10186000FF1FE357FE4F80819181CF910C949A0A1C
:10187000C03F30F08C2F0E944018CF910C942B1950
:10188000CF910895882309F452C0823871F40E94E0
:10189000500A81FF4CC089E30E9492140E940315F4
:1018A00089E30E9499140C940315833859F40E941B
:1018B000500A80FF3CC083E50E9492140E940315E9
:1018C00083E5EFCF843859F40E94500A82FF2FC07D
:1018D00087E40E9492140E94031587E4E2CF9CEFF4
:1018E000980F913AF0F290E2980F983050F4877088
:1018F00091E001C0990F8A95EAF7892F0E94C014E0
:10190000D2CF9BE5980F933020F490E080E00C94C8
:10191000840A98E5980F973120F490E080E00C94C9
:101920009A0A803F20F00E94A8180C942B19089561
:10193000CF93C82F0E94B00BC93349F42FEF87EE25
:1019400093E0215080409040E1F700C000008C2FD0
:10195000CF910C94420C882321F00E94BA140C946D
:1019600003150895882321F00E94C0140C940315D8
:101970000895BF92CF92DF92EF92FF920F931F9341
:10198000CF93DF936C01D62FC72FFC010581029501
:101990000F70128111110E94D7140E94B014E82E0A
:1019A000882391F01123D1F08C2F807F803421F097
:1019B00080E28D0F883090F082E00E944E150E94E8
:1019C000B01491E0E82EE926BC2EB2949FE0B92233
:1019D000EB2DF0E0E357FE4D0C942F21E12CF4CFDA
:1019E0000C2F0F70C07F11F00295007F1123A9F01A
:1019F000002359F080E28D0F883010F0D11109C01A
:101A0000802F0E94BA140E9403158D2F0E94B00BE4
:101A100014C0802F0E94CA14F6CF8D2F0E94420C52
:101A2000002359F080E28D0F883010F0D1112CC0C6
:101A3000802F0E94C0140E9403152B2D2850330BB9
:101A40002430310520F40E94500A0E94B802EE2092
:101A500009F49EC10E94AC1480FD9AC1F601128265
:101A60000E94A6140E943213C6010E94E90E0E9431
:101A7000A614DF91CF911F910F91FF90EF90DF900F
:101A8000CF90BF900C945313802F0E94D014D3CFCB
:101A9000FC2FFF70FF2EC07FC03219F0F29480EF50
:101AA000F822DD2369F0D13049F1112391F10023AF
:101AB00051F1F601858180FFA8CF8F70858323C007
:101AC000112381F0011106C00E94EA148F290E949F
:101AD000AB0CB3CF0130C1F70E94EA148F290E94EA
:101AE000F014ABCF011106C00E94F9148F2D0E9493
:101AF000B20CA3CF013009F4A0CFF6CF112329F007
:101B0000063008F09ACF8F2DE2CF053008F095CF40
:101B1000EDCF002359F3D93349F4FFEF27EE33E03B
:101B2000F15020403040E1F700C000008D2F0E94AE
:101B3000420C83CF8C2F86958695837069F0813017
:101B400009F07BCF8D2F9C2F9370111102C090E074
:101B500080E00E949A0A71CF8D2F9C2F93701111F3
:101B600002C090E080E00E94840A67CF8D2F11238D
:101B700029F00E9440180E942B195FCF0E94A818DC
:101B8000FACF8C2F837009F041C0111156CF4D2F21
:101B9000429546954770440F440F0D2F0F7010E08B
:101BA00030E020E0042E04C0000F111F221F331F5D
:101BB0000A94D2F760E070E0CB01D4FF0FC06FE071
:101BC00070E080E090E004C0660F771F881F991FC7
:101BD0004A95D2F76095709580959095C695C69573
:101BE000C370602B712B822B932BC23049F058F4B9
:101BF000C13019F00E94E41220CF0E94D2121DCFF2
:101C00000E94F6121ACF0E94D01217CF8695112388
:101C100011F08C2F8170882309F40FCF4D2F42953E
:101C200046954770440F440F0D2F0F7010E030E0C1
:101C300020E0042E04C0000F111F221F331F0A943E
:101C4000D2F760E070E0CB01D4FF0FC06FE070E02E
:101C500080E090E004C0660F771F881F991F4A95A7
:101C6000D2F76095709580959095C695C695C3708E
:101C7000602B712B822B932BC23049F058F4C1306A
:101C800019F00E94A913D9CE0E949713D6CE0E94B4
:101C9000BB13D3CE0E940C13D0CECF70112329F0EA
:101CA0008C2F0E9432138D2F12CF8D2F0E94B20CD9
:101CB0008C2F0E945313C1CED23F89F160F4D03FE4
:101CC000C9F0D13F29F1112309F442C001119DCE81
:101CD0008C2F8F7121C0D33F39F1D43FA1F711234D
:101CE00069F1CF718C2F0E94321363E08C2F0E9418
:101CF0003915A3CE112341F0053008F09ECE8C2F6C
:101D00008F710E94761399CE063008F096CEF7CFE9
:101D10008C2F8F71112369F20E9432138ECE8C2F7B
:101D20008F711123C9F3C5CF112329F08C2F8F7127
:101D30000E941D1382CE0E9418137FCE81E00E9464
:101D40004E15023008F479CE82E00E944E1575CE11
:101D5000002359F0D93309F0E9CE8FEF97EEE3E095
:101D600081509040E040E1F7DFCE8C2F8F71A1CF02
:101D70004C2F4F706D2FC6010E9412030E94481213
:101D80005CCE4C2F4F706D2FC6010E94150355CEAF
:101D9000DF91CF911F910F91FF90EF90DF90CF9047
:101DA000BF9008950F931F93CF93DF93EC01688149
:101DB00079818A810E946E148C010E94CD130E9449
:101DC000CF12B801CE01DF91CF911F910F910C94EA
:101DD000B90CCF93DF93EC018B819C81892B29F087
:101DE0008881998189238F3F59F4DF91CF9108959C
:101DF000CE010E94D20ECE01DF91CF910C949A02B7
:101E0000CE010E94D0028111F3CF0E94B01488232A
:101E100061F38A81882349F382E0DF91CF910C94AA
:101E20004E15882321F00E94CA140C9403150895BE
:101E3000882321F00E94D0140C94031508950E9469
:101E4000D7140E94E7140E9403150E94521A0E94A0
:101E50002B1990E080E00E94840A90E080E00C94CE
:101E60009A0A0E94A0140C941F0F0E94C7140C948D
:101E7000310FE92FE295EF70E250EE3070F4F0E0B0
:101E8000E356FE4D0C942F21803F19F020F4883E3C
:101E900020F481E00895843FE1F380E00895883ED6
:101EA000C0F3813FD1F7F5CF93FB882780F90895E0
:101EB0000E9464140C94390FCF93DF9300D000D0AC
:101EC0000F92CDB7DEB70F900F900F900F900F903D
:101ED000DF91CF910895CF93DF9300D000D000D051
:101EE000CDB7DEB726960FB6F894DEBF0FBECDBFD6
:101EF000DF91CF9108951F93CF93DF93C091EF01AE
:101F000016E08091F0018C1304C0DF91CF911F91F6
:101F10000895D0E01C9FF0011D9FF00D1124EF509B
:101F2000FE4F4081518162817381848195810E943D
:101F30006B0F2196C770E5CF40912102509122028C
:101F400060912302709124028091250290912602D3
:101F50000C946B0F1F93CF93DF9380912602807FA9
:101F6000A9F480912302882389F08091EF01C09128
:101F7000F0016091210270912202A0912402B0919F
:101F80002502D62FD72316E0C81304C0DF91CF91C6
:101F90001F91089590E0109711F0DF3F19F401961A
:101FA0008770F2CF189F9001199F300D1124F9010D
:101FB000EF50FE4F41814713F2CF40814613EFCFE0
:101FC00042814111ECCF438154814A1B5B0B483C59
:101FD000510528F7809126028F7080618093260238
:101FE000F901EA50FE4F80818F708061808381E229
:101FF00092E00E94E90EDF91CF911F910C947B0F2C
:10200000AF92BF92CF92DF92EF92FF920F931F9306
:10201000CF93DF93CDB7DEB761970FB6F894DEBFED
:102020000FBECDBF8C0185E0F801DE011D96019049
:102030000D928A95E1F7F80140815181E28081E2B9
:10204000C82E82E0D82E609124027091250261157D
:10205000710509F461C19091210220912202892F1A
:1020600082238F3F09F458C1A380B480F0902302EB
:10207000F501E61BF70BFF2009F4FCC08091260256
:10208000382F307FE83CF10508F0B2C0311179C03B
:10209000FE2C251323C0941321C0E1101FC08F70A4
:1020A0008061809326020E949C0FC6010E94E90E67
:1020B00080912602F80185838F2D61960FB6F894E2
:1020C000DEBF0FBECDBFDF91CF911F910F91FF906B
:1020D000EF90DF90CF90BF90AF900895AB2829F09C
:1020E000842F85238F3F09F033C180E0F82FF170F2
:1020F000DF2E80FF3CC08091EF012091F00136E09F
:10210000821315C04D875E878D859E850E9464145D
:10211000292F22952F702230F0F0243018F59F706F
:10212000F1F0F8019581907FD1F4D12C1EC090E0A0
:10213000389FF001399FF00D1124EF50FE4F61815F
:10214000651306C06081641303C062816E110FC005
:1021500001968770D5CF9F7011F0882331F3805E90
:10216000883018F3C8010E94E90EFD2CA5CFEE209F
:1021700009F4A2CF80912602816080932602F12C7F
:102180009BCF251306C0941304C0F801EE2009F478
:102190008DC04D875E878D859E850E94580F882350
:1021A00019F1EE2009F180912602803270F0209121
:1021B00021023091220238872F831986BB86AA8696
:1021C0008C87CE0107960E94E90E86E0F801A1E215
:1021D000B2E001900D928A95E1F70E94AA0F0E9449
:1021E0009C0FFF24F39468CFC8010E94E90EF9CF39
:1021F000311113C07A2DB98AA88A6E2D89890E945F
:102200005C0F81E292E00E94E90E86E0F6011192F5
:102210008A95E9F70E949C0FB2CF25130FC0941343
:102220000DC0E1100BC0F8018583C8010E94E90EC2
:1022300086E0F60111928A95E9F73ECF4D875E87D9
:102240008D859E850E94580F882371F2EE2061F2E1
:1022500080912602803208F4B8CF2091210230917B
:1022600022023A8329831B82BD82AC828E83CE01F7
:102270000196A9CFE83CF10508F041C0FE2CEE2004
:1022800009F4B2CF25132AC0941328C080912602E6
:1022900080FD1BC0982F907FC1F0F8018583903F8F
:1022A00031F0982F907F905F8F70892B8583C801C4
:1022B0000E94E90E86E0F801A1E2B2E001900D92E1
:1022C0008A95E1F70E949C0FF7CE86E0F801A1E223
:1022D000B2E001900D928A95E1F7EECE4D875E87D0
:1022E0008D859E850E94580F81116FCF80912602A7
:1022F000816080932602C8010E94E90EDDCE7A2D0E
:10230000B98AA88A6E2D89890E945C0F86E0F60141
:1023100011928A95E9F7D6CFEE2009F465CF4D8763
:102320005E878D859E850E94580FF82E882309F4BC
:102330005BCF86E0F801A1E2B2E001900D928A95B0
:10234000E1F781E292E00E94AB0B0E94AA0FBACFA4
:1023500081E08E25CBCE88EC90E008951F93CF933B
:10236000DF93CDB7DEB72C970FB6F894DEBF0FBE64
:10237000CDBF4F83588769877A878B879C87CE012B
:1023800007960E940010882369F08A859B85892B17
:1023900039F04F815885842F85238F3F09F071C014
:1023A00016E05FC086E0FE013796DE0111960190CF
:1023B0000D928A95E1F78A859B85892B89F38F8118
:1023C000988589238F3F61F32091F00130E0C901A6
:1023D0000196877099274091EF014817190671F40B
:1023E0000E94350F1092F0011092EF0186E0E1E2B9
:1023F000F2E0DF011D928A95E9F7D2CF96E0929F35
:10240000D001939FB00D1124AF50BE4FFE01319605
:1024100001900D929A95E1F78093F0010E947B0F55
:10242000BFCF819FC00111248F509E4F0E9400108A
:102430008823E9F0E091EF011E9FF0011124EF5095
:10244000FE4F4081518162817381848195810E9418
:102450006B0F8091EF0190E0019687709927809330
:10246000EF018091EF019091F0018913DACF2C9662
:102470000FB6F894DEBF0FBECDBFDF91CF911F9195
:10248000089569857A858B859C850E946B0F88CF1E
:10249000EF92FF920F931F93CF93DF938C01892BC1
:1024A00081F0F12CEE24E394E8012196F801849167
:1024B000843770F4843008F05FC08130B1F082302E
:1024C000A1F1DF91CF911F910F91FF90EF900895AF
:1024D000853709F44CC008F43DC09CE7980F90374D
:1024E00080F78F770E94420C49C00E5F1F4FFE019C
:1024F000849190E2980F983060F48770FE2D01C0AF
:10250000FF0F8A95EAF78F2F0E94DA140E940315B5
:1025100002C00E94B00B8F2D815030F2EFE9FFE036
:102520003197F1F700C00000F7CF0E5F1F4FFE019B
:10253000849190E2980F983050F48770FE2D01C07E
:10254000FF0F8A95EAF78F2F0E94E014DFCF0E94D9
:10255000420CE1CF0E5F1F4FFE01C491C150D8F273
:102560008FE99FE00197F1F700C00000F7CF0E5F01
:102570001F4FFE01F490CFCF0E94B00B8E01CBCF46
:1025800008950C94C0120E94C1126093440270938B
:10259000450280934602909347020C941F0F0895C2
:1025A0000C94C3120F931F930091440210914502A3
:1025B0002091460230914702602B712B822B932B86
:1025C0001F910F910C94C3120F931F93009144021B
:1025D00010914502209146023091470260237123F9
:1025E000822393231F910F910C94C3120F931F9377
:1025F0000091440210914502209146023091470219
:1026000060277127822793271F910F910C94C31283
:102610000C94C0120C9408130E940A136093400299
:102620007093410280934202909343020C941F0FD7
:1026300060E070E0CB010C940C130F931F9341E00A
:1026400050E060E070E08A019B0104C0000F111FA0
:10265000221F331F8A95D2F7C901B8011F910F912C
:102660000C940C130F931F9341E050E060E070E076
:1026700004C0440F551F661F771F8A95D2F78091BB
:10268000400290914102A0914202B09143028A011E
:102690009B01082B192B2A2B3B2BC901B8011F9139
:1026A0000F910C940C130F931F9341E050E060E0E6
:1026B00070E004C0440F551F661F771F8A95D2F73C
:1026C000CB01BA016095709580959095009140027C
:1026D0001091410220914202309143026023712304
:1026E000822393231F910F910C940C130F931F932C
:1026F00041E050E060E070E004C0440F551F661FE9
:10270000771F8A95D2F78091400290914102A09163
:102710004202B09143028A019B01082719272A2708
:102720003B27C901B8011F910F910C940C130F9313
:102730001F9300914002109141022091420230917A
:102740004302602B712B822B932B1F910F910C94C2
:102750000C130F931F93009140021091410220919E
:1027600042023091430260237123822393231F91FD
:102770000F910C940C130F931F9300914002109132
:102780004102209142023091430260277127822743
:1027900093271F910F910C940C1308952AE0929F98
:1027A000800D1124982F977041E001C0440F9A9535
:1027B000EAF786958695869595E0899FF001112424
:1027C000E95DFD4F90E080E070E05191DF011197ED
:1027D0009B01082E02C0369527950A94E2F72170D6
:1027E00021952527242325272C93019685309105B3
:1027F00061F708952AE0929F800D1124982F977019
:1028000086958695869525E0829FF0011124E95DE5
:10281000FD4F50E040E080E0219130E0092E02C001
:10282000369527950A94E2F721703327042E01C0CC
:10283000220F0A94EAF7822B4F5F5F4F4530510514
:1028400059F70895BF92CF92DF92EF92FF920F93C4
:102850001F93CF93DF938C01C0904002D090410230
:10286000E0904202F0904302809144029091450230
:10287000A0914602B0914702C82AD92AEA2AFB2A27
:10288000CFE1D0E0BC2ED701C6010C2E04C0B69516
:10289000A795979587950A94D2F780FD0EC021974A
:1028A00088F7B12C8B2DDF91CF911F910F91FF9065
:1028B000EF90DF90CF90BF900895B8018C2F0E94C9
:1028C0003203019761F3EECFCF93DF93EC010E94C7
:1028D0002214BE01DF91CF910C9432031F93CF934A
:1028E000DF93EB019091EE01992331F0CB01DF9161
:1028F000CF911F910C946414882379F0CB010E942E
:102900002214182F682FCE010E94CE13BE01812FF2
:10291000DF91CF911F910C943203CB010E94FA13E7
:10292000182FF4CF682F8091290190912A010C94DF
:102930009E16682F8091290190912A010C94A91666
:102940008091290190912A010C94B416809148023B
:10295000859585958595089580914802877008959D
:1029600090914802977081E009F480E00895809189
:102970006C02089590916C02892B80936C020895EB
:10298000809590916C02982390936C020895109218
:102990006C02089590916B02892B80936B020895CD
:1029A000809590916B02982390936B0208951092FA
:1029B0006B02089590916A02892B80936A020895B0
:1029C000809590916A02982390936A0208951092DC
:1029D0006A02089580914902089508950C94ED14B7
:1029E00090914902981721F0809349020C94EE14BB
:1029F000089580914902882329F01092490280E0CD
:102A00000C94EE140895E0912901F0912A0180912F
:102A10006C028083E0912901F0912A0180819091DC
:102A20006B02892B8083E0912901F0912A0180813A
:102A300090916A02892B808390914902992381F0B9
:102A4000E0912901F0912A018081892B8083809176
:102A5000290190912A010E940A1681110E94F914FD
:102A60008091290190912A010C945C0A08950C949C
:102A7000361598E0899F90011124622B60934802DB
:102A80000E943213809148028595859585950C9416
:102A900037151092480280E00C9437159091480247
:102AA0008095892380934802282F277071F4282F5E
:102AB000082E000C330B9217130639F08595859577
:102AC00085950E9453130C944915089590E080E079
:102AD0000E94512121E08C3E9E4F09F020E0822F80
:102AE000089582E090E00C94492183E090E00C94FA
:102AF0004921CF9384E090E00E944921C82F81E2D0
:102B000090E00E944921982F8C2FCF910895CF9368
:102B1000C92F682F84E090E00E9457216C2F81E23A
:102B200090E0CF910C945721AB01BC018FE090E075
:102B30000C946921AB01BC0183E190E00C94692104
:102B400060E070E0CB010C949A1560E070E0CB017E
:102B50000E9494150C94A0156CEE7EEF90E080E03E
:102B60000E94752160E082E090E00E94572160E0C1
:102B700083E090E00E945721109244021092450297
:102B8000109246021092470260E084E090E00E94BA
:102B9000572160E081E290E00E94572160E085E0EB
:102BA00090E00E94572160E086E090E00E9457216B
:102BB0006FEF87E090E00E94572140E050E0BA01BB
:102BC00088E090E00E94692160E08DE090E00E9442
:102BD000572140E050E0BA0188E190E00E9469216D
:102BE00060E087E190E00E94572140E050E0BA01A8
:102BF0008CE190E00E94692160E080E290E00E9418
:102C000057210C94A5150C94AC15682F8EE090E01C
:102C10000C945721FC01329680913D01882321F0CC
:102C20008091B2029EE187FF96E080E0915008F427
:102C3000089521912223D1F38F5FF8CF662301F10C
:102C400020913D012223F1F02091B20227FF1AC00A
:102C5000462F4695469546954E3190F4677021E093
:102C600030E002C0220F331F6A95E2F7840F911DF6
:102C7000FC01828190E02823392381E0232B69F431
:102C800080E00895FC01329608962191261721F0E4
:102C9000E817F907D1F7F4CF81E008959C01FC0112
:102CA00032969FEF80E04191461751F09F3F19F413
:102CB000411101C0982F8F5F8630A9F79F3F09F41B
:102CC0000895290F311D97FD3A95F9016283089502
:102CD000FC01329608962191261303C0DF0111975B
:102CE0001C92E817F907B9F70895E62FE695E695DF
:102CF000E695EE3168F4E80FF92FF11D677021E0D9
:102D000030E001C0220F6A95EAF78281822B82832C
:102D10000895E62FE695E695E695EE3170F4E80F16
:102D2000F92FF11D677021E030E001C0220F6A9594
:102D3000EAF72095828128232283089520913D017E
:102D4000222329F02091B20227FD0C9475160C94D1
:102D50004E1620913D01222329F02091B20227FD39
:102D60000C9489160C946816FC01329680913D01F2
:102D7000882351F08091B20287FF06C08EE1DF0107
:102D80001D928A95E9F7089586E0F9CF0895089590
:102D90000C94C7160E94C8168091B802843049F17D
:102DA00010926E0288E190E020E40FB6F894A895A6
:102DB000809360000FBE2093600080E00E94B80204
:102DC0000E94C81683B7817F846083BF83B7816008
:102DD00083BF7894889583B78E7F83BF0FB6F894AE
:102DE000A8958091600088618093600010926000D7
:102DF0000FBE08950895CF930E94C6160E949605AF
:102E00000E94FA16C0E08C2F0E942705892B31F40E
:102E1000CF5FC430C1F780E0CF91089581E0FCCF4F
:102E200008950C9410170E94350F0E94500A0E94BA
:102E3000B8020C9411171F921FB61F9211248F9382
:102E40009F93AF93BF9380916E02811113C08091C5
:102E5000AE029091AF02A091B002B091B102419642
:102E6000A11DB11D8093AE029093AF02A093B0025A
:102E7000B093B102BF91AF919F918F911F901FBEF0
:102E80001F90189582E084BD93E095BD9AEF97BDA1
:102E900080936E0008952FB7F8948091AE029091C0
:102EA000AF02A091B002B091B1022FBF08959C0172
:102EB0004FB7F8948091AE029091AF02A091B0020A
:102EC000B091B1024FBF821B930B089578941F926B
:102ED0001FB61F9211248F939F93AF93BF9380913E
:102EE000AE029091AF02A091B002B091B1020196F2
:102EF000A11DB11D8093AE029093AF02A093B002CA
:102F0000B093B102BF91AF919F918F911F901FBE5F
:102F10001F90189587E797E7909301088093000822
:102F200088E19AE00FB6F894A895809360000FBEF0
:102F300090936000FFCF0E946615811102C00E942D
:102F400003160E94711580936D020E94791590936B
:102F5000B3028093B2020E947515682F70E090E072
:102F600080E00E94D01260914002709141028091F5
:102F70004202909143020C940A138091750280FFE3
:102F800012C06091300185E0689FB00111247595F1
:102F900067957595679560387105A8F56115710598
:102FA000A1F1862F089581FF09C06091300185E06D
:102FB000689FB001112475956795EDCF6091300140
:102FC00082FD0AC0809174028823D1F090912F0174
:102FD00060913001891728F085E0689FB0011124C5
:102FE000DACF869FB001112485E0869F9001879FEC
:102FF000300D1124692F70E0C9010E941B21CBCF35
:1030000065E070E0CECF8FE7089581E0089580916C
:10301000750280FF0CC060912C0170E0759567957A
:10302000759567956115710549F1862F089581FFA2
:1030300006C060912C0170E075956795F3CF6091A3
:103040002C0182FD0BC0909173029923A1F0609135
:103050002B0180912C01961738F0682F70E06038B2
:10306000710500F38FE70895899FC001112470E076
:103070000E941B21F4CF61E070E0D7CF81E008957A
:10308000803F31F40E94BD178195809379020895A5
:10309000813F19F40E94BD17F8CF823F31F40E949E
:1030A000BD178195809378020895833F19F40E949B
:1030B000BD17F8CF893F29F40E94071880937A0240
:1030C00008958A3F21F40E9407188195F7CF8B3F1E
:1030D00031F40E940718819580937B0208958C3FFC
:1030E00019F40E940718F8CF843F31F480917702D9
:1030F0008160809377020895853F21F48091770263
:103100008260F7CF863F21F4809177028460F1CF0F
:10311000873F21F4809177028860EBCF883F21F4CC
:10312000809177028061E5CF8D3F31F48091750207
:1031300081608093750208958E3F21F4809175021D
:103140008260F7CF8F3FB9F7809175028460F1CF2D
:1031500090917802803F59F48091790287FF0DC0E9
:103160001092790291110BC01092740208C0813F35
:1031700081F48091790218169CF3992381F0809153
:103180007A0290917B02892B09F064C0109273023D
:103190000895823F49F497FFF0CF10927802809112
:1031A00079028111ECCFE0CF833F19F41916ACF30B
:1031B000E4CF20917A02893F29F41216F4F6109296
:1031C0007A02DBCF8A3F19F427FFD7CFF8CF2091BF
:1031D0007B028B3F29F427FFD0CF10927B02CDCF0B
:1031E0008C3F19F41216CCF3C8CF843F31F4809190
:1031F00077028E7F80937702C0CF853F21F4809144
:1032000077028D7FF7CF863F21F4809177028B7F05
:10321000F1CF873F21F480917702877FEBCF883F02
:1032200021F4809177028F7EE5CF8D3F31F480913C
:1032300075028E7F80937502A0CF8E3F21F480911E
:1032400075028D7FF7CF8F3F09F097CF8091750280
:103250008B7FF0CF08950E944B179C0190917802CC
:1032600080917902982B21F03093720220937102A1
:1032700090917A0280917B02982B21F0309370021A
:1032800020936F0286E792E00C94760AEF92FF9209
:103290000F931F93CF93DF9300D000D000D0CDB712
:1032A000DEB786E0E6E7F2E0DE01119601900D92CE
:1032B0008A95E1F7E0907802F090790200917A0225
:1032C00010917B02109278021092790210927A0289
:1032D00010927B028E2D8F2991F080917102909136
:1032E00072020E945717AC0190917402992309F45D
:1032F0003FC0809131018417150608F447C0802F24
:10330000812B91F080916F02909170020E9457176B
:10331000AC0190917302992309F477C080912D013B
:103320008417150608F47FC0809178029091790285
:10333000892B90917A02892B90917B02892B11F035
:103340000E942B1986E0FE013196A6E7B2E00190BB
:103350000D928A95E1F726960FB6F894DEBF0FBE60
:10336000CDBFDF91CF911F910F91FF90EF90089506
:10337000209132018AE0289F9001112424173507FB
:1033800008F0BDCF9F5F9093740202C09F3FD1F7BA
:10339000EE2059F00E94BD179FEF1E140CF491E02F
:1033A000899F802D112480937802FF2059F00E947C
:1033B000BD179FEF1F140CF491E0899F802D1124FD
:1033C0008093790230917802332309F498CF2091C9
:1033D0007902222309F493CF45EB3403C001112471
:1033E000992359F09093780245EB2403900111241E
:1033F000332339F03093790282CF81E080937802D1
:10340000F3CF81E0809379027ACF20912E018AE078
:10341000289F900111242417350708F085CF9F5F5E
:103420009093730202C09F3FD1F7002359F00E948E
:1034300007189FEF10160CF491E0899F802D11243E
:1034400080937A02112359F00E9407189FEF1116FA
:103450000CF491E0899F802D112480937B023091A0
:103460007A02332309F460CF20917B02222309F4EE
:103470005BCF45EB3403C0011124992359F090939D
:103480007A0245EB240390011124332339F0309361
:103490007B024ACF81E080937A02F3CF81E0809370
:1034A0007B0242CF86E0E6E7F2E0DF011D928A95DB
:1034B000E9F7109274021092730210927502089547
:1034C00080919C020895CF93DF9300D00F92CDB7E7
:1034D000DEB79091B802943019F589837B836A83B3
:1034E00082E08093E9008FEF9091E800815095FD94
:1034F00006C095ED9A95F1F700008111F5CF809106
:10350000E80085FF0DC050E040E063E070E0CE01D0
:1035100001960E948A1C8091E8008E778093E800D3
:103520000F900F900F90DF91CF910895BC0184E030
:103530000C94631ABC0183E00C94631A9C0182E032
:103540008093E9009FEF8091E800915085FD06C0CF
:1035500085ED8A95F1F700009111F5CF8091E80093
:1035600085FF0CC050E040E066E070E0C9010E94B9
:103570008A1C8091E8008E778093E8000895CF93AD
:10358000DF93EC0180913D018823B1F18091B2027B
:1035900087FF32C060E282E08093E9008FEF909174
:1035A000E800815095FD06C095ED9A95F1F7000071
:1035B0008111F5CF8091E80085FF1BC080913D010E
:1035C00070E050E040E0811104C050E040E068E06D
:1035D00070E0CE010E948A1C8091E8008E77809373
:1035E000E80080E2FE01ACE7B2E001900D928A951E
:1035F000E1F7DF91CF91089568E081E0CDCF809130
:10360000B702811109C00E941A1E0E94771E809184
:10361000E20084608093E20008951092B70208955A
:10362000089508950C94131742E061EC81E00E9424
:10363000961D42E261EC82E00C94961D8091BA02E4
:10364000833009F45FC030F48130C1F1823009F475
:103650009BC008958A3009F487C08B3009F46DC08F
:10366000893009F04EC08091B902813209F049C019
:103670008091BD029091BE02029708F042C08091F5
:10368000E800877F8093E8008091E80082FF35C0E2
:103690009091F3008091F200029729F48091F1005B
:1036A0008B7F813021F48091F10080939C02809186
:1036B000E8008B778093E8000C94CA1D8091B902D2
:1036C000813AF9F48091E800877F8093E800809147
:1036D000BD029091BE02892B61F460E28CE792E01A
:1036E00070E00E94D91C8091E8008B778093E800FD
:1036F000089560E090E080E0F3CF8091B8028111FE
:10370000C3CF08958091B902813AD9F78091BD0263
:103710009091BE02892BA9F78091E800877F809362
:10372000E8008091E80080FFFCCF80913D0180930C
:10373000F1008091E8008E77BDCF8091B90281328F
:1037400001F78091BD029091BE02892BD1F6809144
:10375000E800877F8093E8000E94CA1D8091BB0229
:1037600080933D010C94350F8091B902813249F666
:103770008091E800877F8093E8000E94CA1D8091B5
:10378000BC0280939D0208958091B902813A09F0AC
:10379000B8CF8091E800877F8093E8008091E800AF
:1037A00080FFFCCF80919D02C2CF84B7877F84BF0A
:1037B0000FB6F894A89580916000886180936000AE
:1037C000109260000FBE80E890E00FB6F8948093EE
:1037D0006100909361000FBE0E94BE0A0E941A1EF3
:1037E0000E94771E8091E20084608093E2007894CA
:1037F0000E9400210E94C80A83E391E00E944B0AC4
:103800008091B802853019F00E94D20AF9CF0E9447
:10381000CA168091B602882399F30E94FB1688236A
:1038200079F30E94741CECCF0C94161C292F3327BB
:103830002330310519F168F42130310509F44AC00B
:103840002230310509F44BC090E080E030E020E008
:1038500028C02132310579F122323105A9F780E4FF
:1038600090E023E033E061157105D9F08CEB90E036
:1038700027E432E061307105A1F0E6CF992781306D
:10388000910599F0009741F08230910589F00397F6
:10389000D9F6ECECF1E002C0E6EFF1E0849190E0C3
:1038A0009F01FA01318320830895E2EEF1E0F6CF23
:1038B000E2EDF1E0F3CF89E090E02CE032E0611539
:1038C000710579F389E090E025E232E0613071051D
:1038D00041F3BACF82E190E025E332E0E2CF8BE31F
:1038E00090E02AEF31E0DDCF80E189BD82E189BD42
:1038F00009B400FEFDCF8091D8008F7D8093D80061
:103900008091E00082608093E0008091E00081FD82
:10391000FCCF0895AF92BF92CF92DF92FF920F93A8
:103920001F93CF93DF936C01EB018A010E94E91D85
:10393000F82E811123C00115110539F0F80180819D
:103940009181C81BD90BC80ED91EB12CA12C209770
:10395000A9F08091E80085FD22C08091E8008E7773
:103960008093E80001151105A1F0F8018081918193
:10397000A80EB91EB182A08285E0F82E8F2DDF91AE
:10398000CF911F910F91FF90DF90CF90BF90AF909C
:1039900008950E94E91D8823D1F2F82EEFCFF60199
:1039A00081916F018093F1002197FFEFAF1ABF0A59
:1039B000CECFFC018091BF029091C002861797077D
:1039C000A0F06115710529F49091E8009E7790931D
:1039D000E80090E06115710551F4911108C08091E3
:1039E000E80082FF34C080E00895BC01F2CF8091EE
:1039F000B8028823C1F18530C1F18091E80083FDD0
:103A000030C08091E80082FDEACF8091E80080FF1D
:103A1000E1CF8091F3002091F200382F61157105FC
:103A200019F02830310558F091E02830310509F0BF
:103A300090E02091E8002E772093E800CBCF819191
:103A40008093F100615071092F5F3F4FE7CF809164
:103A5000B802882341F0853041F08091E80083FF6F
:103A6000BECF81E0089582E0089583E00895FC01CF
:103A70008091BF029091C00286179707A0F0611550
:103A8000710529F48091E8008E778093E80090E03A
:103A90006115710551F4911108C08091E80082FF11
:103AA00035C080E00895BC01F2CF8091B802882330
:103AB000C9F18530C9F18091E80083FD31C0809162
:103AC000E80082FDEACF8091E80080FFE1CF80919D
:103AD000F3002091F200382F6115710519F028309C
:103AE000310558F091E02830310509F090E08091DF
:103AF000E8008E778093E800CBCF84918093F1002B
:103B00003196615071092F5F3F4FE6CF8091B80227
:103B1000882341F0853041F08091E80083FFBDCFDC
:103B200081E0089582E0089583E00895982F97300A
:103B300028F08F708093E90081E008959093E90068
:103B4000242F762F50E0981731F07091EC002091DF
:103B5000ED005091F00021FD02C09F5FE8CF309151
:103B6000EB003E7F3093EB003091ED003D7F3093D2
:103B7000ED003091EB0031603093EB007093EC007E
:103B80002093ED005093F0002091EE0027FDE5CF4B
:103B900080E008958091B90287FF13C08091E8000A
:103BA00082FF06C08091E8008B778093E80004C014
:103BB0008091B8028111F2CF08958091B8028823D4
:103BC000D9F38091E80080FFF8CF8091E8008E77EC
:103BD000ECCF2091E4003091E50095E6A901209119
:103BE000EC00822F817020FF06C08091E80080FFEA
:103BF00006C080E008952091E80022FD1AC080915F
:103C0000B802882389F0853089F08091EB0085FD2A
:103C10000FC02091E4003091E50042175307F9F2FC
:103C20009150E1F684E0089582E0089583E00895DC
:103C300081E008950E94881E0E94901EE0EEF0E050
:103C4000808181608083E8EDF0E080818F778083E0
:103C500019BCA7EDB0E08C918E7F8C9380818F7E14
:103C600080831092B70208950F931F93CF93DF9331
:103C70000E94881E0E94901EC8EDD0E088818F7738
:103C8000888388818068888388818F7D888319BC38
:103C90001092B8021092B4021092B6021092B502BD
:103CA00000EE10E0F80180818B7F80838881816045
:103CB000888342E060E080E00E94961DE1EEF0E043
:103CC00080818E7F8083E2EEF0E08081816080835E
:103CD000808188608083F80180818E7F80838881E5
:103CE00080618883DF91CF911F910F910895E8ED56
:103CF000F0E080818F7E8083E7EDF0E0808181605D
:103D0000808384E082BF81E08093B7020C94341EEC
:103D1000E8EDF0E080818E7F80831092E2000895CC
:103D20001092DA001092E10008951F920F920FB6E0
:103D30000F9211242F933F934F935F936F937F9331
:103D40008F939F93AF93BF93EF93FF938091E10085
:103D500082FF0BC08091E20082FF07C08091E100EA
:103D60008B7F8093E1000E94FF208091DA0080FF2A
:103D700019C08091D80080FF15C08091DA008E7F35
:103D80008093DA008091D90080FF96C080E189BDE0
:103D900082E189BD09B400FEFDCF81E08093B802C5
:103DA0000E94FF1A8091E10080FF19C08091E2001B
:103DB00080FF15C08091E2008E7F8093E2008091A9
:103DC000E20080618093E2008091D800806280935D
:103DD000D80019BC85E08093B8020E94111B809125
:103DE000E10084FF2BC08091E20084FF27C080E1C6
:103DF00089BD82E189BD89B5982F917080FFFBCF85
:103E00008091D8008F7D8093D8008091E1008F7ED3
:103E10008093E1008091E2008F7E8093E2008091A8
:103E2000E20081608093E2008091B402882309F46B
:103E300049C084E08093B8020E94121B8091E10087
:103E400083FF29C08091E20083FF25C08091E100BB
:103E5000877F8093E10082E08093B8021092B402E1
:103E60008091E1008E7F8093E1008091E2008E7F5F
:103E70008093E2008091E20080618093E20042E062
:103E800060E080E00E94961D8091F0008860809341
:103E9000F0000E94101BFF91EF91BF91AF919F9195
:103EA0008F917F916F915F914F913F912F910F90E3
:103EB0000FBE0F901F90189519BC1092B8020E9467
:103EC0000D1B70CF8091E30087FD93E09093B802C3
:103ED000B3CF1F920F920FB60F9211242F933F93DF
:103EE0004F935F936F937F938F939F93AF93BF9302
:103EF000CF93DF93EF93FF93D091E900DF70809130
:103F0000EC00C82FC17080FDC0E81092E9008091DC
:103F1000F000877F8093F00078940E94AD1F10928C
:103F2000E9008091F00088608093F000CD2BCF7085
:103F3000C093E900FF91EF91DF91CF91BF91AF91D5
:103F40009F918F917F916F915F914F913F912F91B1
:103F50000F900FBE0F901F9018951F93CF93DF9374
:103F6000CDB7DEB7AA970FB6F894DEBF0FBECDBFB0
:103F700089EB92E02091F100FC012193CF01F2E066
:103F8000813C9F07B9F70E941E1B8091E80083FFC8
:103F90001EC18091B9029091BA029A3008F017C1FF
:103FA000E92FF0E0E555FE4D0C942F21803899F073
:103FB000823809F00CC18091BD028F70873008F003
:103FC00006C18093E9008091EB0085FB882780F98A
:103FD0001092E90006C08091B5029091B60291114D
:103FE00082609091E800977F9093E8008093F100C1
:103FF0001092F1008091E8008E77E5C0882309F4E3
:10400000D3C0823009F0E3C08091BB028111D6C0D9
:104010008091BD028F702FEF280F263008F0D7C097
:104020008093E9002091EB0020FFC8C0933031F469
:104030008091EB0080628093EB00C0C09091EB0018
:1040400090619093EB0021E030E001C0220F8A954F
:10405000EAF72093EA001092EA008091EB00886072
:10406000EACF8111B4C01091BB021F778091E300A9
:104070008078812B8093E3008091E800877F809394
:10408000E8000E94CA1D8091E80080FFFCCF80916B
:10409000E30080688093E30082E0111183E0809365
:1040A000B80295C08058823008F091C08091BB0260
:1040B0009091BC028C3D23E09207A1F583E08A83B6
:1040C0008AE289834FB7F894DE01139620E03EE040
:1040D00051E2E32FF0E050935700E49120FF03C03A
:1040E000E295EF703F5FEF708E2F90E0EA30C0F006
:1040F000C7968D939D932F5F243159F74FBF8091C1
:10410000E800877F8093E8006AE270E0CE010196C4
:104110000E94D91C8091E8008B778093E80057C0FB
:10412000C096E7CF6091BD027091BE02AE014F5FB5
:104130005F4F0E94141CBC01892B09F448C0909168
:10414000E800977F9093E80089819A810E94371D4B
:10415000E1CF8038E1F58091E800877F8093E80027
:104160008091B4028093F10045CF811130C09091CD
:10417000BB02923060F58091E800877F8093E80071
:104180009093B4020E94CA1D8091B402882311F05A
:1041900084E005C08091E30087FDFACF81E0809341
:1041A000B8020E94141B13C08091BB02813079F4C5
:1041B00081E0933009F080E08093B6021092E9002C
:1041C0008091E800877F8093E8000E94CA1D80915B
:1041D000E80083FF0AC08091E800877F8093E800B1
:1041E0008091EB0080628093EB00AA960FB6F89462
:1041F000DEBF0FBECDBFDF91CF911F91089508950F
:10420000CF938091B8028823A1F0C091E900CF70CC
:104210009091EC00892F817090FD80E8C82B10925E
:10422000E9008091E80083FD0E94AD1FCF70C0932C
:10423000E900CF91089597FB072E16F4009407D05C
:1042400077FD09D00E94352107FC05D03EF49095FA
:1042500081959F4F0895709561957F4F0895EE0F5A
:10426000FF1F0590F491E02D0994AA1BBB1B51E19F
:1042700007C0AA1FBB1FA617B70710F0A61BB70BD6
:10428000881F991F5A95A9F780959095BC01CD017B
:104290000895F999FECF92BD81BDF89A992780B50E
:1042A0000895A8E1B0E042E050E00C947D21262F73
:1042B000F999FECF92BD81BDF89A019700B402161C
:1042C00039F01FBA20BD0FB6F894FA9AF99A0FBECA
:1042D00008950396272F0E9458210E945721252FC9
:1042E0000E945821242F0C9458210196272F0E94B8
:1042F00058210C945721DC01CB01FC01F999FECF28
:1043000006C0F2BDE1BDF89A319600B40D9241505D
:104310005040B8F70895F894FFCFF00CF00C480D1A
:10432000480D9A0DB60D1D0D1D0DC10D4D0E5C0EE7
:104330005C0EB80E1D0D1D0DC10E440F440F4D0F28
:104340004D0F4F0F4D0F4D0F4D0F440F440F540F96
:104350004D0F4D0F540FD61FFE1FE720FE1FE72005
:0A43600031205220E720A920B520EB
:10436A00C601290000C0012A0000BA012B0000B4CE
:10437A00014C0000AE01280000A801340000A2018F
:10438A002602009C01270200014A022808641E1422
:10439A000A321E601ABF1A9E1A9A1A961A01E20067
:1043AA00E900EA00B500B600B700CD008301CC00F1
:1043BA008A01920194012102230224022502260283
:1043CA0027022A02B300B4006F007000818283932F
:1043DA00929190946634359733F6F7323600FF019E
:1043EA0000010000FFFF0000010001FF00E200E9F8
:1043FA0000EA00B500B600B700CD008301CC008A00
:10440A000192019401210223022402250226022795
:0E441A00022A02B300B4006F0070008182839A
:00000001FF
